{
  "_format": "hh-sol-artifact-1",
  "contractName": "PollutionRight",
  "sourceName": "contracts/PollutionRight.sol",
  "abi": [
    {
      "inputs": [
        {
          "internalType": "address",
          "name": "recipient",
          "type": "address"
        }
      ],
      "stateMutability": "nonpayable",
      "type": "constructor"
    },
    {
      "inputs": [],
      "name": "ECDSAInvalidSignature",
      "type": "error"
    },
    {
      "inputs": [
        {
          "internalType": "uint256",
          "name": "length",
          "type": "uint256"
        }
      ],
      "name": "ECDSAInvalidSignatureLength",
      "type": "error"
    },
    {
      "inputs": [
        {
          "internalType": "bytes32",
          "name": "s",
          "type": "bytes32"
        }
      ],
      "name": "ECDSAInvalidSignatureS",
      "type": "error"
    },
    {
      "inputs": [
        {
          "internalType": "address",
          "name": "spender",
          "type": "address"
        },
        {
          "internalType": "uint256",
          "name": "allowance",
          "type": "uint256"
        },
        {
          "internalType": "uint256",
          "name": "needed",
          "type": "uint256"
        }
      ],
      "name": "ERC20InsufficientAllowance",
      "type": "error"
    },
    {
      "inputs": [
        {
          "internalType": "address",
          "name": "sender",
          "type": "address"
        },
        {
          "internalType": "uint256",
          "name": "balance",
          "type": "uint256"
        },
        {
          "internalType": "uint256",
          "name": "needed",
          "type": "uint256"
        }
      ],
      "name": "ERC20InsufficientBalance",
      "type": "error"
    },
    {
      "inputs": [
        {
          "internalType": "address",
          "name": "approver",
          "type": "address"
        }
      ],
      "name": "ERC20InvalidApprover",
      "type": "error"
    },
    {
      "inputs": [
        {
          "internalType": "address",
          "name": "receiver",
          "type": "address"
        }
      ],
      "name": "ERC20InvalidReceiver",
      "type": "error"
    },
    {
      "inputs": [
        {
          "internalType": "address",
          "name": "sender",
          "type": "address"
        }
      ],
      "name": "ERC20InvalidSender",
      "type": "error"
    },
    {
      "inputs": [
        {
          "internalType": "address",
          "name": "spender",
          "type": "address"
        }
      ],
      "name": "ERC20InvalidSpender",
      "type": "error"
    },
    {
      "inputs": [
        {
          "internalType": "uint256",
          "name": "deadline",
          "type": "uint256"
        }
      ],
      "name": "ERC2612ExpiredSignature",
      "type": "error"
    },
    {
      "inputs": [
        {
          "internalType": "address",
          "name": "signer",
          "type": "address"
        },
        {
          "internalType": "address",
          "name": "owner",
          "type": "address"
        }
      ],
      "name": "ERC2612InvalidSigner",
      "type": "error"
    },
    {
      "inputs": [
        {
          "internalType": "address",
          "name": "account",
          "type": "address"
        },
        {
          "internalType": "uint256",
          "name": "currentNonce",
          "type": "uint256"
        }
      ],
      "name": "InvalidAccountNonce",
      "type": "error"
    },
    {
      "inputs": [],
      "name": "InvalidShortString",
      "type": "error"
    },
    {
      "inputs": [
        {
          "internalType": "string",
          "name": "str",
          "type": "string"
        }
      ],
      "name": "StringTooLong",
      "type": "error"
    },
    {
      "anonymous": false,
      "inputs": [
        {
          "indexed": true,
          "internalType": "address",
          "name": "owner",
          "type": "address"
        },
        {
          "indexed": true,
          "internalType": "address",
          "name": "spender",
          "type": "address"
        },
        {
          "indexed": false,
          "internalType": "uint256",
          "name": "value",
          "type": "uint256"
        }
      ],
      "name": "Approval",
      "type": "event"
    },
    {
      "anonymous": false,
      "inputs": [],
      "name": "EIP712DomainChanged",
      "type": "event"
    },
    {
      "anonymous": false,
      "inputs": [
        {
          "indexed": true,
          "internalType": "address",
          "name": "from",
          "type": "address"
        },
        {
          "indexed": true,
          "internalType": "address",
          "name": "to",
          "type": "address"
        },
        {
          "indexed": false,
          "internalType": "uint256",
          "name": "value",
          "type": "uint256"
        }
      ],
      "name": "Transfer",
      "type": "event"
    },
    {
      "inputs": [],
      "name": "DOMAIN_SEPARATOR",
      "outputs": [
        {
          "internalType": "bytes32",
          "name": "",
          "type": "bytes32"
        }
      ],
      "stateMutability": "view",
      "type": "function"
    },
    {
      "inputs": [
        {
          "internalType": "address",
          "name": "owner",
          "type": "address"
        },
        {
          "internalType": "address",
          "name": "spender",
          "type": "address"
        }
      ],
      "name": "allowance",
      "outputs": [
        {
          "internalType": "uint256",
          "name": "",
          "type": "uint256"
        }
      ],
      "stateMutability": "view",
      "type": "function"
    },
    {
      "inputs": [
        {
          "internalType": "address",
          "name": "spender",
          "type": "address"
        },
        {
          "internalType": "uint256",
          "name": "value",
          "type": "uint256"
        }
      ],
      "name": "approve",
      "outputs": [
        {
          "internalType": "bool",
          "name": "",
          "type": "bool"
        }
      ],
      "stateMutability": "nonpayable",
      "type": "function"
    },
    {
      "inputs": [
        {
          "internalType": "address",
          "name": "account",
          "type": "address"
        }
      ],
      "name": "balanceOf",
      "outputs": [
        {
          "internalType": "uint256",
          "name": "",
          "type": "uint256"
        }
      ],
      "stateMutability": "view",
      "type": "function"
    },
    {
      "inputs": [
        {
          "internalType": "uint256",
          "name": "value",
          "type": "uint256"
        }
      ],
      "name": "burn",
      "outputs": [],
      "stateMutability": "nonpayable",
      "type": "function"
    },
    {
      "inputs": [
        {
          "internalType": "address",
          "name": "account",
          "type": "address"
        },
        {
          "internalType": "uint256",
          "name": "value",
          "type": "uint256"
        }
      ],
      "name": "burnFrom",
      "outputs": [],
      "stateMutability": "nonpayable",
      "type": "function"
    },
    {
      "inputs": [],
      "name": "decimals",
      "outputs": [
        {
          "internalType": "uint8",
          "name": "",
          "type": "uint8"
        }
      ],
      "stateMutability": "view",
      "type": "function"
    },
    {
      "inputs": [],
      "name": "eip712Domain",
      "outputs": [
        {
          "internalType": "bytes1",
          "name": "fields",
          "type": "bytes1"
        },
        {
          "internalType": "string",
          "name": "name",
          "type": "string"
        },
        {
          "internalType": "string",
          "name": "version",
          "type": "string"
        },
        {
          "internalType": "uint256",
          "name": "chainId",
          "type": "uint256"
        },
        {
          "internalType": "address",
          "name": "verifyingContract",
          "type": "address"
        },
        {
          "internalType": "bytes32",
          "name": "salt",
          "type": "bytes32"
        },
        {
          "internalType": "uint256[]",
          "name": "extensions",
          "type": "uint256[]"
        }
      ],
      "stateMutability": "view",
      "type": "function"
    },
    {
      "inputs": [],
      "name": "name",
      "outputs": [
        {
          "internalType": "string",
          "name": "",
          "type": "string"
        }
      ],
      "stateMutability": "view",
      "type": "function"
    },
    {
      "inputs": [
        {
          "internalType": "address",
          "name": "owner",
          "type": "address"
        }
      ],
      "name": "nonces",
      "outputs": [
        {
          "internalType": "uint256",
          "name": "",
          "type": "uint256"
        }
      ],
      "stateMutability": "view",
      "type": "function"
    },
    {
      "inputs": [
        {
          "internalType": "address",
          "name": "owner",
          "type": "address"
        },
        {
          "internalType": "address",
          "name": "spender",
          "type": "address"
        },
        {
          "internalType": "uint256",
          "name": "value",
          "type": "uint256"
        },
        {
          "internalType": "uint256",
          "name": "deadline",
          "type": "uint256"
        },
        {
          "internalType": "uint8",
          "name": "v",
          "type": "uint8"
        },
        {
          "internalType": "bytes32",
          "name": "r",
          "type": "bytes32"
        },
        {
          "internalType": "bytes32",
          "name": "s",
          "type": "bytes32"
        }
      ],
      "name": "permit",
      "outputs": [],
      "stateMutability": "nonpayable",
      "type": "function"
    },
    {
      "inputs": [],
      "name": "symbol",
      "outputs": [
        {
          "internalType": "string",
          "name": "",
          "type": "string"
        }
      ],
      "stateMutability": "view",
      "type": "function"
    },
    {
      "inputs": [],
      "name": "totalSupply",
      "outputs": [
        {
          "internalType": "uint256",
          "name": "",
          "type": "uint256"
        }
      ],
      "stateMutability": "view",
      "type": "function"
    },
    {
      "inputs": [
        {
          "internalType": "address",
          "name": "to",
          "type": "address"
        },
        {
          "internalType": "uint256",
          "name": "value",
          "type": "uint256"
        }
      ],
      "name": "transfer",
      "outputs": [
        {
          "internalType": "bool",
          "name": "",
          "type": "bool"
        }
      ],
      "stateMutability": "nonpayable",
      "type": "function"
    },
    {
      "inputs": [
        {
          "internalType": "address",
          "name": "from",
          "type": "address"
        },
        {
          "internalType": "address",
          "name": "to",
          "type": "address"
        },
        {
          "internalType": "uint256",
          "name": "value",
          "type": "uint256"
        }
      ],
      "name": "transferFrom",
      "outputs": [
        {
          "internalType": "bool",
          "name": "",
          "type": "bool"
        }
      ],
      "stateMutability": "nonpayable",
      "type": "function"
    }
  ],
  "bytecode": "0x61016060405234801561001157600080fd5b50604051612bb5380380612bb58339818101604052810190610033919061064e565b6040518060400160405280600e81526020017f506f6c6c7574696f6e5269676874000000000000000000000000000000000000815250806040518060400160405280600181526020017f31000000000000000000000000000000000000000000000000000000000000008152506040518060400160405280600e81526020017f506f6c6c7574696f6e52696768740000000000000000000000000000000000008152506040518060400160405280600281526020017f5052000000000000000000000000000000000000000000000000000000000000815250816003908161011b91906108cb565b50806004908161012b91906108cb565b50505061014260058361021860201b90919060201c565b610120818152505061015e60068261021860201b90919060201c565b6101408181525050818051906020012060e08181525050808051906020012061010081815250504660a0818152505061019b61026860201b60201c565b608081815250503073ffffffffffffffffffffffffffffffffffffffff1660c08173ffffffffffffffffffffffffffffffffffffffff1681525050505050610212816101eb6102c360201b60201c565b600a6101f79190610b0c565b64e8d4a510006102079190610b57565b6102cc60201b60201c565b50610e02565b600060208351101561023a576102338361035460201b60201c565b9050610262565b8261024a836103bc60201b60201c565b600001908161025991906108cb565b5060ff60001b90505b92915050565b60007f8b73c3c69bb8fe3d512ecc4cf759cc79239f7b179b0ffacaa9a75d522b39400f60e0516101005146306040516020016102a8959493929190610bd0565b60405160208183030381529060405280519060200120905090565b60006012905090565b600073ffffffffffffffffffffffffffffffffffffffff168273ffffffffffffffffffffffffffffffffffffffff160361033e5760006040517fec442f050000000000000000000000000000000000000000000000000000000081526004016103359190610c23565b60405180910390fd5b610350600083836103c660201b60201c565b5050565b600080829050601f815111156103a157826040517f305a27a90000000000000000000000000000000000000000000000000000000081526004016103989190610cc3565b60405180910390fd5b8051816103ad90610d15565b60001c1760001b915050919050565b6000819050919050565b600073ffffffffffffffffffffffffffffffffffffffff168373ffffffffffffffffffffffffffffffffffffffff160361041857806002600082825461040c9190610d7c565b925050819055506104eb565b60008060008573ffffffffffffffffffffffffffffffffffffffff1673ffffffffffffffffffffffffffffffffffffffff168152602001908152602001600020549050818110156104a4578381836040517fe450d38c00000000000000000000000000000000000000000000000000000000815260040161049b93929190610db0565b60405180910390fd5b8181036000808673ffffffffffffffffffffffffffffffffffffffff1673ffffffffffffffffffffffffffffffffffffffff16815260200190815260200160002081905550505b600073ffffffffffffffffffffffffffffffffffffffff168273ffffffffffffffffffffffffffffffffffffffff16036105345780600260008282540392505081905550610581565b806000808473ffffffffffffffffffffffffffffffffffffffff1673ffffffffffffffffffffffffffffffffffffffff168152602001908152602001600020600082825401925050819055505b8173ffffffffffffffffffffffffffffffffffffffff168373ffffffffffffffffffffffffffffffffffffffff167fddf252ad1be2c89b69c2b068fc378daa952ba7f163c4a11628f55a4df523b3ef836040516105de9190610de7565b60405180910390a3505050565b600080fd5b600073ffffffffffffffffffffffffffffffffffffffff82169050919050565b600061061b826105f0565b9050919050565b61062b81610610565b811461063657600080fd5b50565b60008151905061064881610622565b92915050565b600060208284031215610664576106636105eb565b5b600061067284828501610639565b91505092915050565b600081519050919050565b7f4e487b7100000000000000000000000000000000000000000000000000000000600052604160045260246000fd5b7f4e487b7100000000000000000000000000000000000000000000000000000000600052602260045260246000fd5b600060028204905060018216806106fc57607f821691505b60208210810361070f5761070e6106b5565b5b50919050565b60008190508160005260206000209050919050565b60006020601f8301049050919050565b600082821b905092915050565b6000600883026107777fffffffffffffffffffffffffffffffffffffffffffffffffffffffffffffffff8261073a565b610781868361073a565b95508019841693508086168417925050509392505050565b6000819050919050565b6000819050919050565b60006107c86107c36107be84610799565b6107a3565b610799565b9050919050565b6000819050919050565b6107e2836107ad565b6107f66107ee826107cf565b848454610747565b825550505050565b600090565b61080b6107fe565b6108168184846107d9565b505050565b5b8181101561083a5761082f600082610803565b60018101905061081c565b5050565b601f82111561087f5761085081610715565b6108598461072a565b81016020851015610868578190505b61087c6108748561072a565b83018261081b565b50505b505050565b600082821c905092915050565b60006108a260001984600802610884565b1980831691505092915050565b60006108bb8383610891565b9150826002028217905092915050565b6108d48261067b565b67ffffffffffffffff8111156108ed576108ec610686565b5b6108f782546106e4565b61090282828561083e565b600060209050601f8311600181146109355760008415610923578287015190505b61092d85826108af565b865550610995565b601f19841661094386610715565b60005b8281101561096b57848901518255600182019150602085019450602081019050610946565b868310156109885784890151610984601f891682610891565b8355505b6001600288020188555050505b505050505050565b7f4e487b7100000000000000000000000000000000000000000000000000000000600052601160045260246000fd5b60008160011c9050919050565b6000808291508390505b6001851115610a23578086048111156109ff576109fe61099d565b5b6001851615610a0e5780820291505b8081029050610a1c856109cc565b94506109e3565b94509492505050565b600082610a3c5760019050610af8565b81610a4a5760009050610af8565b8160018114610a605760028114610a6a57610a99565b6001915050610af8565b60ff841115610a7c57610a7b61099d565b5b8360020a915084821115610a9357610a9261099d565b5b50610af8565b5060208310610133831016604e8410600b8410161715610ace5782820a905083811115610ac957610ac861099d565b5b610af8565b610adb84848460016109d9565b92509050818404811115610af257610af161099d565b5b81810290505b9392505050565b600060ff82169050919050565b6000610b1782610799565b9150610b2283610aff565b9250610b4f7fffffffffffffffffffffffffffffffffffffffffffffffffffffffffffffffff8484610a2c565b905092915050565b6000610b6282610799565b9150610b6d83610799565b9250828202610b7b81610799565b91508282048414831517610b9257610b9161099d565b5b5092915050565b6000819050919050565b610bac81610b99565b82525050565b610bbb81610799565b82525050565b610bca81610610565b82525050565b600060a082019050610be56000830188610ba3565b610bf26020830187610ba3565b610bff6040830186610ba3565b610c0c6060830185610bb2565b610c196080830184610bc1565b9695505050505050565b6000602082019050610c386000830184610bc1565b92915050565b600082825260208201905092915050565b60005b83811015610c6d578082015181840152602081019050610c52565b60008484015250505050565b6000601f19601f8301169050919050565b6000610c958261067b565b610c9f8185610c3e565b9350610caf818560208601610c4f565b610cb881610c79565b840191505092915050565b60006020820190508181036000830152610cdd8184610c8a565b905092915050565b600081519050919050565b6000819050602082019050919050565b6000610d0c8251610b99565b80915050919050565b6000610d2082610ce5565b82610d2a84610cf0565b9050610d3581610d00565b92506020821015610d7557610d707fffffffffffffffffffffffffffffffffffffffffffffffffffffffffffffffff8360200360080261073a565b831692505b5050919050565b6000610d8782610799565b9150610d9283610799565b9250828201905080821115610daa57610da961099d565b5b92915050565b6000606082019050610dc56000830186610bc1565b610dd26020830185610bb2565b610ddf6040830184610bb2565b949350505050565b6000602082019050610dfc6000830184610bb2565b92915050565b60805160a05160c05160e051610100516101205161014051611d59610e5c6000396000610b5301526000610b18015260006110680152600061104701526000610991015260006109e701526000610a100152611d596000f3fe608060405234801561001057600080fd5b50600436106100f55760003560e01c806370a082311161009757806395d89b411161006657806395d89b411461028e578063a9059cbb146102ac578063d505accf146102dc578063dd62ed3e146102f8576100f5565b806370a08231146101ee57806379cc67901461021e5780637ecebe001461023a57806384b0196e1461026a576100f5565b806323b872dd116100d357806323b872dd14610166578063313ce567146101965780633644e515146101b457806342966c68146101d2576100f5565b806306fdde03146100fa578063095ea7b31461011857806318160ddd14610148575b600080fd5b610102610328565b60405161010f9190611555565b60405180910390f35b610132600480360381019061012d9190611610565b6103ba565b60405161013f919061166b565b60405180910390f35b6101506103dd565b60405161015d9190611695565b60405180910390f35b610180600480360381019061017b91906116b0565b6103e7565b60405161018d919061166b565b60405180910390f35b61019e610416565b6040516101ab919061171f565b60405180910390f35b6101bc61041f565b6040516101c99190611753565b60405180910390f35b6101ec60048036038101906101e7919061176e565b61042e565b005b6102086004803603810190610203919061179b565b610442565b6040516102159190611695565b60405180910390f35b61023860048036038101906102339190611610565b61048a565b005b610254600480360381019061024f919061179b565b6104aa565b6040516102619190611695565b60405180910390f35b6102726104bc565b60405161028597969594939291906118d0565b60405180910390f35b610296610566565b6040516102a39190611555565b60405180910390f35b6102c660048036038101906102c19190611610565b6105f8565b6040516102d3919061166b565b60405180910390f35b6102f660048036038101906102f191906119ac565b61061b565b005b610312600480360381019061030d9190611a4e565b610763565b60405161031f9190611695565b60405180910390f35b60606003805461033790611abd565b80601f016020809104026020016040519081016040528092919081815260200182805461036390611abd565b80156103b05780601f10610385576101008083540402835291602001916103b0565b820191906000526020600020905b81548152906001019060200180831161039357829003601f168201915b5050505050905090565b6000806103c56107ea565b90506103d28185856107f2565b600191505092915050565b6000600254905090565b6000806103f26107ea565b90506103ff858285610804565b61040a858585610899565b60019150509392505050565b60006012905090565b600061042961098d565b905090565b61043f6104396107ea565b82610a44565b50565b60008060008373ffffffffffffffffffffffffffffffffffffffff1673ffffffffffffffffffffffffffffffffffffffff168152602001908152602001600020549050919050565b61049c826104966107ea565b83610804565b6104a68282610a44565b5050565b60006104b582610ac6565b9050919050565b6000606080600080600060606104d0610b0f565b6104d8610b4a565b46306000801b600067ffffffffffffffff8111156104f9576104f8611aee565b5b6040519080825280602002602001820160405280156105275781602001602082028036833780820191505090505b507f0f00000000000000000000000000000000000000000000000000000000000000959493929190965096509650965096509650965090919293949596565b60606004805461057590611abd565b80601f01602080910402602001604051908101604052809291908181526020018280546105a190611abd565b80156105ee5780601f106105c3576101008083540402835291602001916105ee565b820191906000526020600020905b8154815290600101906020018083116105d157829003601f168201915b5050505050905090565b6000806106036107ea565b9050610610818585610899565b600191505092915050565b8342111561066057836040517f627913020000000000000000000000000000000000000000000000000000000081526004016106579190611695565b60405180910390fd5b60007f6e71edae12b1b97f4d1f60370fef10105fa2faae0126114a169c64845d6126c988888861068f8c610b85565b896040516020016106a596959493929190611b1d565b60405160208183030381529060405280519060200120905060006106c882610bdc565b905060006106d882878787610bf6565b90508973ffffffffffffffffffffffffffffffffffffffff168173ffffffffffffffffffffffffffffffffffffffff161461074c57808a6040517f4b800e46000000000000000000000000000000000000000000000000000000008152600401610743929190611b7e565b60405180910390fd5b6107578a8a8a6107f2565b50505050505050505050565b6000600160008473ffffffffffffffffffffffffffffffffffffffff1673ffffffffffffffffffffffffffffffffffffffff16815260200190815260200160002060008373ffffffffffffffffffffffffffffffffffffffff1673ffffffffffffffffffffffffffffffffffffffff16815260200190815260200160002054905092915050565b600033905090565b6107ff8383836001610c26565b505050565b60006108108484610763565b90507fffffffffffffffffffffffffffffffffffffffffffffffffffffffffffffffff8110156108935781811015610883578281836040517ffb8f41b200000000000000000000000000000000000000000000000000000000815260040161087a93929190611ba7565b60405180910390fd5b61089284848484036000610c26565b5b50505050565b600073ffffffffffffffffffffffffffffffffffffffff168373ffffffffffffffffffffffffffffffffffffffff160361090b5760006040517f96c6fd1e0000000000000000000000000000000000000000000000000000000081526004016109029190611bde565b60405180910390fd5b600073ffffffffffffffffffffffffffffffffffffffff168273ffffffffffffffffffffffffffffffffffffffff160361097d5760006040517fec442f050000000000000000000000000000000000000000000000000000000081526004016109749190611bde565b60405180910390fd5b610988838383610dfd565b505050565b60007f000000000000000000000000000000000000000000000000000000000000000073ffffffffffffffffffffffffffffffffffffffff163073ffffffffffffffffffffffffffffffffffffffff16148015610a0957507f000000000000000000000000000000000000000000000000000000000000000046145b15610a36577f00000000000000000000000000000000000000000000000000000000000000009050610a41565b610a3e611022565b90505b90565b600073ffffffffffffffffffffffffffffffffffffffff168273ffffffffffffffffffffffffffffffffffffffff1603610ab65760006040517f96c6fd1e000000000000000000000000000000000000000000000000000000008152600401610aad9190611bde565b60405180910390fd5b610ac282600083610dfd565b5050565b6000600760008373ffffffffffffffffffffffffffffffffffffffff1673ffffffffffffffffffffffffffffffffffffffff168152602001908152602001600020549050919050565b6060610b4560057f00000000000000000000000000000000000000000000000000000000000000006110b890919063ffffffff16565b905090565b6060610b8060067f00000000000000000000000000000000000000000000000000000000000000006110b890919063ffffffff16565b905090565b6000600760008373ffffffffffffffffffffffffffffffffffffffff1673ffffffffffffffffffffffffffffffffffffffff1681526020019081526020016000206000815480929190600101919050559050919050565b6000610bef610be961098d565b83611168565b9050919050565b600080600080610c08888888886111a9565b925092509250610c18828261129d565b829350505050949350505050565b600073ffffffffffffffffffffffffffffffffffffffff168473ffffffffffffffffffffffffffffffffffffffff1603610c985760006040517fe602df05000000000000000000000000000000000000000000000000000000008152600401610c8f9190611bde565b60405180910390fd5b600073ffffffffffffffffffffffffffffffffffffffff168373ffffffffffffffffffffffffffffffffffffffff1603610d0a5760006040517f94280d62000000000000000000000000000000000000000000000000000000008152600401610d019190611bde565b60405180910390fd5b81600160008673ffffffffffffffffffffffffffffffffffffffff1673ffffffffffffffffffffffffffffffffffffffff16815260200190815260200160002060008573ffffffffffffffffffffffffffffffffffffffff1673ffffffffffffffffffffffffffffffffffffffff168152602001908152602001600020819055508015610df7578273ffffffffffffffffffffffffffffffffffffffff168473ffffffffffffffffffffffffffffffffffffffff167f8c5be1e5ebec7d5bd14f71427d1e84f3dd0314c0f7b2291e5b200ac8c7c3b92584604051610dee9190611695565b60405180910390a35b50505050565b600073ffffffffffffffffffffffffffffffffffffffff168373ffffffffffffffffffffffffffffffffffffffff1603610e4f578060026000828254610e439190611c28565b92505081905550610f22565b60008060008573ffffffffffffffffffffffffffffffffffffffff1673ffffffffffffffffffffffffffffffffffffffff16815260200190815260200160002054905081811015610edb578381836040517fe450d38c000000000000000000000000000000000000000000000000000000008152600401610ed293929190611ba7565b60405180910390fd5b8181036000808673ffffffffffffffffffffffffffffffffffffffff1673ffffffffffffffffffffffffffffffffffffffff16815260200190815260200160002081905550505b600073ffffffffffffffffffffffffffffffffffffffff168273ffffffffffffffffffffffffffffffffffffffff1603610f6b5780600260008282540392505081905550610fb8565b806000808473ffffffffffffffffffffffffffffffffffffffff1673ffffffffffffffffffffffffffffffffffffffff168152602001908152602001600020600082825401925050819055505b8173ffffffffffffffffffffffffffffffffffffffff168373ffffffffffffffffffffffffffffffffffffffff167fddf252ad1be2c89b69c2b068fc378daa952ba7f163c4a11628f55a4df523b3ef836040516110159190611695565b60405180910390a3505050565b60007f8b73c3c69bb8fe3d512ecc4cf759cc79239f7b179b0ffacaa9a75d522b39400f7f00000000000000000000000000000000000000000000000000000000000000007f0000000000000000000000000000000000000000000000000000000000000000463060405160200161109d959493929190611c5c565b60405160208183030381529060405280519060200120905090565b606060ff60001b83146110d5576110ce83611401565b9050611162565b8180546110e190611abd565b80601f016020809104026020016040519081016040528092919081815260200182805461110d90611abd565b801561115a5780601f1061112f5761010080835404028352916020019161115a565b820191906000526020600020905b81548152906001019060200180831161113d57829003601f168201915b505050505090505b92915050565b60006040517f190100000000000000000000000000000000000000000000000000000000000081528360028201528260228201526042812091505092915050565b60008060007f7fffffffffffffffffffffffffffffff5d576e7357a4501ddfe92f46681b20a08460001c11156111e9576000600385925092509250611293565b60006001888888886040516000815260200160405260405161120e9493929190611caf565b6020604051602081039080840390855afa158015611230573d6000803e3d6000fd5b505050602060405103519050600073ffffffffffffffffffffffffffffffffffffffff168173ffffffffffffffffffffffffffffffffffffffff160361128457600060016000801b93509350935050611293565b8060008060001b935093509350505b9450945094915050565b600060038111156112b1576112b0611cf4565b5b8260038111156112c4576112c3611cf4565b5b03156113fd57600160038111156112de576112dd611cf4565b5b8260038111156112f1576112f0611cf4565b5b03611328576040517ff645eedf00000000000000000000000000000000000000000000000000000000815260040160405180910390fd5b6002600381111561133c5761133b611cf4565b5b82600381111561134f5761134e611cf4565b5b03611394578060001c6040517ffce698f700000000000000000000000000000000000000000000000000000000815260040161138b9190611695565b60405180910390fd5b6003808111156113a7576113a6611cf4565b5b8260038111156113ba576113b9611cf4565b5b036113fc57806040517fd78bce0c0000000000000000000000000000000000000000000000000000000081526004016113f39190611753565b60405180910390fd5b5b5050565b6060600061140e83611475565b90506000602067ffffffffffffffff81111561142d5761142c611aee565b5b6040519080825280601f01601f19166020018201604052801561145f5781602001600182028036833780820191505090505b5090508181528360208201528092505050919050565b60008060ff8360001c169050601f8111156114bc576040517fb3512b0c00000000000000000000000000000000000000000000000000000000815260040160405180910390fd5b80915050919050565b600081519050919050565b600082825260208201905092915050565b60005b838110156114ff5780820151818401526020810190506114e4565b60008484015250505050565b6000601f19601f8301169050919050565b6000611527826114c5565b61153181856114d0565b93506115418185602086016114e1565b61154a8161150b565b840191505092915050565b6000602082019050818103600083015261156f818461151c565b905092915050565b600080fd5b600073ffffffffffffffffffffffffffffffffffffffff82169050919050565b60006115a78261157c565b9050919050565b6115b78161159c565b81146115c257600080fd5b50565b6000813590506115d4816115ae565b92915050565b6000819050919050565b6115ed816115da565b81146115f857600080fd5b50565b60008135905061160a816115e4565b92915050565b6000806040838503121561162757611626611577565b5b6000611635858286016115c5565b9250506020611646858286016115fb565b9150509250929050565b60008115159050919050565b61166581611650565b82525050565b6000602082019050611680600083018461165c565b92915050565b61168f816115da565b82525050565b60006020820190506116aa6000830184611686565b92915050565b6000806000606084860312156116c9576116c8611577565b5b60006116d7868287016115c5565b93505060206116e8868287016115c5565b92505060406116f9868287016115fb565b9150509250925092565b600060ff82169050919050565b61171981611703565b82525050565b60006020820190506117346000830184611710565b92915050565b6000819050919050565b61174d8161173a565b82525050565b60006020820190506117686000830184611744565b92915050565b60006020828403121561178457611783611577565b5b6000611792848285016115fb565b91505092915050565b6000602082840312156117b1576117b0611577565b5b60006117bf848285016115c5565b91505092915050565b60007fff0000000000000000000000000000000000000000000000000000000000000082169050919050565b6117fd816117c8565b82525050565b61180c8161159c565b82525050565b600081519050919050565b600082825260208201905092915050565b6000819050602082019050919050565b611847816115da565b82525050565b6000611859838361183e565b60208301905092915050565b6000602082019050919050565b600061187d82611812565b611887818561181d565b93506118928361182e565b8060005b838110156118c35781516118aa888261184d565b97506118b583611865565b925050600181019050611896565b5085935050505092915050565b600060e0820190506118e5600083018a6117f4565b81810360208301526118f7818961151c565b9050818103604083015261190b818861151c565b905061191a6060830187611686565b6119276080830186611803565b61193460a0830185611744565b81810360c08301526119468184611872565b905098975050505050505050565b61195d81611703565b811461196857600080fd5b50565b60008135905061197a81611954565b92915050565b6119898161173a565b811461199457600080fd5b50565b6000813590506119a681611980565b92915050565b600080600080600080600060e0888a0312156119cb576119ca611577565b5b60006119d98a828b016115c5565b97505060206119ea8a828b016115c5565b96505060406119fb8a828b016115fb565b9550506060611a0c8a828b016115fb565b9450506080611a1d8a828b0161196b565b93505060a0611a2e8a828b01611997565b92505060c0611a3f8a828b01611997565b91505092959891949750929550565b60008060408385031215611a6557611a64611577565b5b6000611a73858286016115c5565b9250506020611a84858286016115c5565b9150509250929050565b7f4e487b7100000000000000000000000000000000000000000000000000000000600052602260045260246000fd5b60006002820490506001821680611ad557607f821691505b602082108103611ae857611ae7611a8e565b5b50919050565b7f4e487b7100000000000000000000000000000000000000000000000000000000600052604160045260246000fd5b600060c082019050611b326000830189611744565b611b3f6020830188611803565b611b4c6040830187611803565b611b596060830186611686565b611b666080830185611686565b611b7360a0830184611686565b979650505050505050565b6000604082019050611b936000830185611803565b611ba06020830184611803565b9392505050565b6000606082019050611bbc6000830186611803565b611bc96020830185611686565b611bd66040830184611686565b949350505050565b6000602082019050611bf36000830184611803565b92915050565b7f4e487b7100000000000000000000000000000000000000000000000000000000600052601160045260246000fd5b6000611c33826115da565b9150611c3e836115da565b9250828201905080821115611c5657611c55611bf9565b5b92915050565b600060a082019050611c716000830188611744565b611c7e6020830187611744565b611c8b6040830186611744565b611c986060830185611686565b611ca56080830184611803565b9695505050505050565b6000608082019050611cc46000830187611744565b611cd16020830186611710565b611cde6040830185611744565b611ceb6060830184611744565b95945050505050565b7f4e487b7100000000000000000000000000000000000000000000000000000000600052602160045260246000fdfea2646970667358221220821b0a0d5b58cb869ade58628ee27e2efe855acf6bd7086d8dad0aeb6134a7f964736f6c634300081c0033",
  "linkReferences": {},
  "deployedLinkReferences": {}
}